:020000040800F2
:1000000098080020850E0008E10E0008E10E0008A7
:10001000E10E0008E10E0008E10E000800000000FB
:10002000000000000000000000000000E10E0008D9
:10003000E10E000800000000E10E0008E10E0008DB
:10004000E10E0008E10E0008E10E0008E10E0008D4
:10005000E10E0008E10E0008E10E0008E10E0008C4
:10006000E10E0008E10E0008E10E0008E10E0008B4
:10007000E10E0008E10E0008E10E0008E10E0008A4
:10008000E10E0008E10E0008E10E0008E10E000894
:10009000E10E0008E10E0008E10E0008E10E000884
:1000A000E10E0008E10E0008E10E0008E10E000874
:1000B0006D0E0008E10E0008E10E0008E10E0008D8
:1000C000E10E0008E10E0008E10E0008E10E000854
:1000D000E10E0008E10E0008E10E0008E10E000844
:1000E000E10E0008E10E0008E10E0008E10E000834
:1000F000E10E0008E10E0008E10E0008E10E000824
:10010000E10E0008E10E0008E10E0008E10E000813
:10011000E10E0008E10E0008E10E0008E10E000803
:10012000E10E0008E10E0008E10E0008E10E0008F3
:10013000E10E0008E10E0008E10E0008E10E0008E3
:10014000E10E0008E10E0008E10E0008E10E0008D3
:10015000E10E0008E10E0008E10E0008E10E0008C3
:10016000E10E0008E10E0008E10E0008E10E0008B3
:10017000E10E0008E10E0008E10E0008E10E0008A3
:10018000E10E0008E10E000880B582B000AF012149
:10019000042000F067FF4FF400533B6000233B71E5
:1001A00000237B710023BB710023FB713B46194682
:1001B000034800F093FF00BF0837BD4680BD00BF75
:1001C0000008024080B485B000AF78600023FB7364
:1001D0004A4B1B78DBB2002B00F08980484B1B7820
:1001E000DBB2022B26D0032B58D1464B1B889BB287
:1001F0001B0A9BB21A46434B1B889BB2DB43DBB204
:100200009A424ED13F4B1B889BB2DBB29AB23D4B18
:100210001A803D4B1B889BB21B021AB2394B1B88BC
:100220009BB21BB213431BB29AB2364B1A80012306
:10023000FB7336E0334B1B889BB21B0A9BB21A46FA
:10024000304B1B889BB2DB43DBB29A4209D12D4B6A
:100250001B889BB2DBB29AB22A4B1A800123FB7334
:1002600021E02A4B1B889BB248F2EE7293421AD1CE
:10027000234B0B221A70234B1B889BB203F47F4342
:100280001B129AB2214B1A801E4B1B889BB2DBB209
:100290009AB21C4B1A800123FB7304E00123FB7309
:1002A00002E000BF00E000BFFB7B002B1CD0144B22
:1002B0001B78DAB27B681A70144B1B889AB27B6881
:1002C0005A80104B1B889AB27B689A80104B1B781F
:1002D000DAB27B689A710B4B00221A800B4B00221A
:1002E0001A800B4B00221A70044B00221A70FB7B01
:1002F00018461437BD4680BC704700BF6D00002013
:100300006E000020720000207400002070000020A9
:100310007600002080B483B000AF0346FB71794BB8
:100320005A7A794B1B789A422BD8764B9A7A764B2D
:100330001B789A4225D9734BDB7B002B12D0FA79BC
:10034000714B1B7819466F4B5B7ACB1A02FA03F399
:100350001AB26E4B1B881BB213431BB29AB26B4B83
:100360001A803FE0694B1B885B009AB2674B1A808A
:10037000FB799AB2654B1B8813439AB2634B1A8080
:1003800030E0604BDA7A604B1B789A422AD85D4B9A
:100390001A7B5D4B1B789A4224D95A4BDB7B002B8E
:1003A00012D0FA79584B1B781946564BDB7ACB1A88
:1003B00002FA03F31AB2564B1B881BB213431BB24B
:1003C0009AB2534B1A800DE0514B1B885B009AB2D6
:1003D0004F4B1A80FB799AB24D4B1B8813439AB24C
:1003E0004B4B1A80474B1B78032B17D1464B1B787E
:1003F000102B13D9444B1B78142B0FD8FA79424B8E
:100400001B78113B02FA03F31AB2424B1B881BB252
:1004100013431BB29AB23F4B1A8068E0394B1B78EA
:10042000052B64D1384B1B78132B13D9364B1B7813
:10043000172B0FD8FA79344B1B78083B02FA03F3D9
:100440001AB2334B1B881BB213431BB29AB2304B08
:100450001A8016E02C4B1B78172B12D92A4B1B78CD
:100460001B2B0ED8FA79284B1B78143B02FA03F3A6
:100470005AB2294B1B785BB213435BB2DAB2264BFC
:100480001A70214B1B782F2B31D8FB79002B16D0FB
:100490001D4B1B78DB08DBB218461A461F4B9B5CD2
:1004A0005AB2194B1B7803F00703012101FA03F339
:1004B0005BB213435BB2DAB2184B1A5417E0124B1B
:1004C0001B78DB08DBB218461A46144B9B5C5AB209
:1004D0000D4B1B7803F00703012101FA03F35BB214
:1004E000DB435BB213405BB2DAB20C4B1A54064BDF
:1004F0001B780133DAB2044B1A7000BF0C37BD46CB
:1005000080BC70475C00002058000020780000206C
:100510007A0000207C00002086000020800000205F
:10052000B0B582B000AF4FF400519B4800F064FEBC
:100530000346BB70994B1B78DBB2002B40F01B8449
:10054000974B1B78002B56D1BB78002B07D1954BCE
:100550001B780133DAB2934B1A7000F00CBC914B4C
:100560001B78002B18D08E4B01221A708E4B012263
:100570001A708E4B00221A708D4B00221A808D4B00
:1005800000221A808C4B00221A708C4BFF221A70AA
:100590008B4B01221A70EEE38A4B1B884FF6FF72D9
:1005A000934200F0E883874B1B8801339AB2854B56
:1005B0001A80854B1B884FF6FF72934200F0DB8355
:1005C000814B1B8801339AB27F4B1A807E4B1B886C
:1005D0001A4640F231439A4240F3CD837B4B1B884D
:1005E000002B00F0C883794B00221A80764B4FF61F
:1005F000FF721A80BFE36C4B1B78002B00F0058163
:10060000BB78002B14D06E4B1B780133DAB26C4BE5
:100610001A706B4B1B78E92B40F24282604B002230
:100620001A70604B00221A70654B00221A7037E274
:1006300000237B605B4B1B781E2B0EDD594B1B7818
:10064000292B0ADC5E4B1B78052B06DD5C4B1B78E7
:100650000A2B02DC5E4B7B607CE0524B1B785D2BEF
:100660000EDD504B1B78B12B0ADC554B1B782D2B24
:1006700006DD534B1B78592B02DC564B7B6069E03F
:10068000484B1B785D2B0EDD464B1B78B12B0ADCEB
:100690004B4B1B78162B06DD494B1B782D2B02DCB0
:1006A0004D4B7B6056E03F4B1B783B2B0EDD3D4BAB
:1006B0001B784B2B0ADC424B1B783B2B06DD404B57
:1006C0001B784B2B02DC454B7B6043E0354B1B78A2
:1006D000282B0EDD334B1B78402B0ADC384B1B7864
:1006E000282B06DD364B1B78402B02DC3C4B7B6015
:1006F00030E02C4B1B782C2B0EDD2A4B1B78392B32
:100700000ADC2F4B1B78152B06DD2D4B1B781D2B80
:1007100002DC344B7B601DE0224B1B78022B16DD84
:10072000204B1B78072B12DC254B1B78162B03DD87
:10073000234B1B781E2B07DD214B1B78082B06DD76
:100740001F4B1B780D2B02DC274B7B6002E0144B08
:1007500000221A70124B1B78002B0AD0234A7B68A8
:1007600014461D4628686968AA68EB680FC42B7C8C
:100770002370124B00221A701C4B1B78082B3AD1A5
:100780000F4B1B78162B33DD0D4B1B781E2B2FDCEC
:100790000120FFF7BFFD2EE0000802406D000020A1
:1007A0008700002088000020890000208A000020A7
:1007B0007A000020780000208600002058000020E9
:1007C0008B0000208C000020000000208E00002004
:1007D000B8150008CC150008E0150008F41500084D
:1007E000081600081C160008301600085C000020DF
:1007F0000020FFF78FFD994B01221A70984B0022C1
:100800001A70984B00221A704AE1974B1B78002B04
:1008100000F036810023FB70BB78002B79D0934B1E
:100820005A7B934B1B789A421DD1904B9B7B012B9B
:1008300019D18E4B5A79894B1B789A4209D88B4B28
:100840009A79864B1B789A4203D3884B00229A737D
:1008500061E0884B00221A70804B00221A70804B96
:1008600000221A7057E07E4B1B780133DAB27C4BC2
:100870001A707E4B1B78012B2AD1794B1B780B2BDE
:1008800026DD7B4B1B780A2B22D9794B1B78013351
:10089000DAB2764B5A730123FB70754B1B780B3B16
:1008A0001B021AB2744B1B881BB213431BB29AB2C1
:1008B000714B1A806D4BDA7A6D4B1B781344DBB2A7
:1008C0000133DAB2694B1A73654B0A221A7022E0BF
:1008D000634B1B78E92B1ED9654B1B781A46634B7B
:1008E0005B7B013B9A420AD1604B9B7B002B06D17C
:1008F0005F4B1B780133DAB25D4B1A700BE05D4B36
:1009000000221A70554B00221A70554B00221A70A3
:1009100001E00123FB70FB78002B00F0C180534BFA
:100920001B78032B52D1524B1B78102B4ED14B4BC3
:100930001B78042B18DD494B1B780C2B14DC484B1F
:100940001B783B2B10DD464B1B784B2B0CDC464BAE
:1009500000221A70494B00221A80454B1B78013344
:10096000DAB2434B1A7030E03C4B1B78042B25DD88
:100970003A4B1B780C2B21DC3C4B0A221A703B4B68
:100980001022DA72394B20221A73384B20225A7304
:10099000334B1B780F2B0ADD314B1B78212B06DCE8
:1009A0000120FFF7B7FC304B00221A700DE0002049
:1009B000FFF7B0FC2C4B00221A7006E02D4B0022F2
:1009C0001A70274B00221A7044E043E0274B5A78F4
:1009D000224B1B789A4218D8244B9A781F4B1B78CD
:1009E0009A4212D3214BDA781D4B1B789A420CD8CD
:1009F0001E4B1A791A4B1B789A4206D30120FFF737
:100A000089FC194B00221A7024E0184B5A79134BB9
:100A10001B789A4218D8154B9A79104B1B789A423A
:100A200012D3124BDA790E4B1B789A420CD80F4B2B
:100A30001A7A0B4B1B789A4206D30020FFF76AFC08
:100A4000094B00221A7005E00A4B00221A70044B71
:100A500000221A70014B01221A7021E08800002048
:100A60008B000020890000208A0000205C0000200C
:100A70005800002087000020780000207C00002023
:100A8000BB78002B06D15D4B1B780133DAB25B4B90
:100A90001A7005E05A4B01221A705A4B01221A7043
:100AA000594B1B78002B00F06681584B5A7B584BF2
:100AB0001B789A4240F05F81544B9B7B002B40F0A7
:100AC0005A81544B1A88544B1B889A420BD1534B72
:100AD0001B88B3F5966F06D2514B1B780133DAB2FF
:100AE0004F4B1A7002E04E4B00221A70474B1B7896
:100AF000012B0BD14A4B1B78012B03D0484B1B78A1
:100B0000022B03D1454B00221A80FEE03F4B1B789D
:100B1000052B07D1424B1B78012B03D13F4B002201
:100B20001A80F2E0394B1B780A2B09D13C4B1B7819
:100B300003F00103002B03D0384B00221A80E4E0BD
:100B4000384B01221A70314B1B78082B34D1324BB1
:100B50001B88DB43C3F30903334A1288934213D142
:100B6000314B1A882C4B1A802F4B00221A80274BAE
:100B70001A782E4B1A702E4B1A882E4B1A80264B41
:100B80001A882D4B1A80C0E0234B1B8803F0010309
:100B9000002B0AD1204B1A88234B1A80274B0022A6
:100BA0001A80204B00221A70AFE01F4B00221A80DF
:100BB0001C4B00221A70A8E0144B1B78022B46D164
:100BC000134B1B78002B42D1144B1B88B3F5E16FFC
:100BD0003AD21B4B1A88164B1A800E4B1A880E4BB2
:100BE0001A80184B1B78DBB243F00103DAB2154BC5
:100BF0001A700A4B00221A8029E000BF88000020EA
:100C00008A0000208B000020870000205C0000206C
:100C100058000020020000207A0000208C000020F4
:100C2000900000206D0000208E0000206E0000204B
:100C300078000020700000207200002000000020DA
:100C400004000020760000204E4B00221A704E4B0C
:100C50001B78052B41D14D4B1B785BB203F00F0382
:100C60005AB24A4B1B781B09DBB25BB253405AB2F3
:100C7000464B5B785BB203F00F035BB253405AB252
:100C8000424B5B781B09DBB25BB253405BB27B70BB
:100C90007A783E4B9B7803F00F039A4202D0394B8F
:100CA00000221A70394B9A78384BDB785340DAB20D
:100CB000364B1B7953407B70344B5B797A789A4280
:100CC00002D0304B00221A70314B1B78DAB2314B14
:100CD0001B781343DAB22E4B1A702B4B1A782E4B1B
:100CE0001A702E4B1A882E4B1A80274B1B78022B1A
:100CF00003D12A4B1A882B4B1A802B4B1A882B4B6B
:100D00001A802B4B1A882B4B1A801E4B1B78DBB298
:100D1000002B24D0284B1A88234B1B889A4213D1CE
:100D2000204B1A881D4B1B889A420DD1234B1B88E0
:100D300040F6C902934207D8154B1B78DBB243F04B
:100D40000103DAB2124B1A70144B1A88154B1A8031
:100D5000154B1A88184B1A80184B00221A80184B12
:100D600000221A70104B00221A80164B00221A70B3
:100D7000154B00221A70034B1B78DBB2184608375C
:100D8000BD46B0BD6D0000205C000020800000204A
:100D900076000020860000206E00002078000020F1
:100DA00070000020040000207A0000207200002063
:100DB0007C00002074000020020000208C00002035
:100DC00087000020880000208B00002080B500AF45
:100DD00000F012F800F036F8FFF7D6F900BF80BD3A
:100DE00080B582B000AF78607868FFF7EBF9034612
:100DF00018460837BD4680BD80B584B000AF0121DC
:100E0000012000F04DF90723BB6040F2BB23BB80FB
:100E10000023BB810023FB803B1D19464FF080401F
:100E200000F00CFB012201214FF0804000F090FB0C
:100E300001214FF0804000F06BFB00BF1037BD4632
:100E400080BD00BF80B582B000AF1C233B71012381
:100E5000FB710F237B710F23BB713B1D184600F004
:100E60008DFA00BF0837BD4680BD00BF80B500AF1A
:100E700001214FF0804000F08FFBFFF751FB00BFD6
:100E800080BD00BF80B582B000AF104B7B60104BBF
:100E90003B6007E03B681A1D3A607A68111D796073
:100EA00012681A603B680B4A9342F3D30A480B4915
:100EB0004FF000028842B8BF40F8042BFADB00F084
:100EC000A7F800BF0837BD4680BD00BF4116000827
:100ED000000000205800002058000020940000204E
:100EE00080B400AFFEE700BF80B584B000AF002340
:100EF000FB7343E0FA7B254913469B0013449B0098
:100F00000B440C331B680121184600F0ABF8FA7B48
:100F10001E4913469B0013449B000B4408331B8857
:100F20007B6001233B720023BB720123FB7202230F
:100F30007B72FA7B154913469B0013449B000B44BC
:100F400004331B683A1D1146184600F0C7F8FA7BB7
:100F50000E4913469B0013449B000B4410331B782F
:100F6000002B04D1FB7B184600F012F803E0FB7B5A
:100F7000184600F02DF8FB7B0133FB73FB7B032B42
:100F8000B8D900BF1037BD4680BD00BF08000020A3
:100F900080B483B000AF0346FB71FA790B49134666
:100FA0009B0013449B000B4404331968FA790748EB
:100FB00013469B0013449B00034408331B884B8358
:100FC00000BF0C37BD4680BC704700BF0800002042
:100FD00080B483B000AF0346FB71FA790B49134626
:100FE0009B0013449B000B4404331968FA790748AB
:100FF00013469B0013449B00034408331B880B8358
:1010000000BF0C37BD4680BC704700BF0800002001
:1010100080B582B000AF00F009F9FFF765FFFFF778
:10102000D5FE3B461846FFF7DBFE0346012BF8D101
:101030007B88B3F57F4FF4D1BB88442B03D10020CC
:10104000FFF7C6FF02E00020FFF7A2FFBB88402B9E
:1010500003D10220FFF7BCFFE3E70220FFF798FF70
:10106000DFE700BF80B483B000AF78600B46FB7051
:10107000FB78002B06D00949084B1A6B7B68134399
:101080000B6306E00549054B1A6B7B68DB43134095
:101090000B6300BF0C37BD4680BC70470038024070
:1010A00080B483B000AF78600B46FB70FB78002BF8
:1010B00006D00949084B1A6C7B6813430B6406E0A1
:1010C0000549054B1A6C7B68DB4313400B6400BF7A
:1010D0000C37BD4680BC70470038024080B487B0F2
:1010E00000AF7860396000237B6100233B610023FF
:1010F000FB6000237B6176E001227B6902FA03F347
:101100003B613B681A683B691340FB60FA683B69C6
:101110009A4265D17B681A687B695B00032101FAFA
:1011200003F3DB431A407B681A607B681A683B68EC
:101130001B7919467B695B0001FA03F31A437B684C
:101140001A603B681B79012B03D03B681B79022B8B
:101150002ED17B689A687B695B00032101FA03F357
:10116000DB431A407B689A607B689A683B685B79CE
:1011700019467B695B0001FA03F31A437B689A60A6
:101180007B685A687B699BB2194601238B40DB431D
:101190001A407B685A607B685B683A6892791146AE
:1011A0007A6992B201FA02F292B21A437B685A60EB
:1011B0007B68DA687B699BB25B00032101FA03F369
:1011C000DB431A407B68DA607B68DA683B68DB796E
:1011D00019467B695B0001FA03F31A437B68DA6006
:1011E0007B6901337B617B690F2B85D900BF1C377D
:1011F000BD4680BC704700BF80B485B000AF78604A
:101200000B467B800023FB737B681A697B88134045
:10121000002B02D00123FB7301E00023FB73FB7B57
:1012200018461437BD4680BC704700BF80B500AF7C
:10123000124A124B1B6843F0010313600F4B00224C
:101240009A600E4A0D4B1B6823F0847323F480339D
:1012500013600A4B0A4A5A60084A084B1B6823F479
:1012600080231360054B0022DA6000F00DF8054B77
:101270004FF000629A6000BF80BD00BF003802409E
:101280001030002400ED00E080B483B000AF0023F4
:101290007B6000233B60354A344B1B6843F480334A
:1012A0001360324B1B6803F400333B607B680133EF
:1012B0007B603B68002B03D17B68B3F5A06FF0D156
:1012C0002A4B1B6803F40033002B02D001233B6040
:1012D00001E000233B603B68012B42D1234A234BB2
:1012E0001B6C43F080531364214A214B1B6843F469
:1012F000804313601D4A1D4B9B6893601B4A1B4B28
:101300009B6843F400439360184A184B9B6843F46E
:10131000A0539360154B174A5A60144A134B1B682D
:1013200043F08073136000BF104B1B6803F0007321
:10133000002BF9D0104B40F205621A600B4A0B4BA0
:101340009B6823F003039360084A084B9B6843F0B3
:101350000203936000BF054B9B6803F00C03082B4E
:10136000F9D100BF0C37BD4680BC70470038024041
:101370000070004008544007003C024080B485B033
:1013800000AF78600023FB730023BB730F237B73D4
:101390007B68DB78002B38D0264BDB68DB4303F41B
:1013A000E0631B0AFB73FB7BC3F10403BB737A7B13
:1013B000FB7B42FA03F37B737B685B781A46BB7B4B
:1013C00002FA03F3FB737B689A787B7B1340DAB2F3
:1013D000FB7B1343FB73FB7B1B01FB73164A7B6890
:1013E0001B781344FA7B83F80023134A7B681B782D
:1013F0005B09DBB218467B681B7803F01F030121F1
:1014000001FA03F342F820300FE00B497B681B78A8
:101410005B09DBB218467B681B7803F01F030122CF
:101420009A4000F1200341F8232000BF1437BD4645
:1014300080BC704700ED00E000E100E080B485B0C2
:1014400000AF786039600023FB817B681B88FB81DB
:101450007B68284A934213D07B68274A93420FD077
:101460007B68B3F1804F0BD07B68244A934207D04E
:101470007B68234A934203D07B68224A934208D177
:10148000FB8923F07003FB813B685A88FB89134377
:10149000FB817B681C4A93420CD07B681B4A9342B9
:1014A00008D0FB8923F44073FB813B681A89FB89D0
:1014B0001343FB817B68FA891A803B685A687B6812
:1014C000DA623B681A887B681A857B68094A93420E
:1014D00003D07B68084A934204D13B689B7A9AB256
:1014E0007B681A867B6801229A8200BF1437BD464A
:1014F00080BC70470000014000040140000400402F
:1015000000080040000C00400010004000140040A3
:1015100080B483B000AF78600B46FB70FB78002B83
:1015200008D07B681B889BB243F001039AB27B68AA
:101530001A8007E07B681B889BB223F001039AB2F4
:101540007B681A8000BF0C37BD4680BC704700BF67
:1015500080B483B000AF78600B467B8013467B700D
:101560007B78002B08D07B689B899AB27B881343D9
:101570009AB27B689A8109E07B689B899AB27B88E2
:10158000DB439BB213409AB27B689A8100BF0C3751
:10159000BD4680BC704700BF80B483B000AF7860A8
:1015A0000B467B807B88DB439AB27B681A8200BF44
:1015B0000C37BD4680BC7047010F15070B070B07A2
:1015C0000B0F14000F1400010000000002050C11A5
:1015D00022050C050C001010202001010000000065
:1015E00002050C1122050C050C0000000000010191
:1015F0000000000003050C1021050C050C0010155F
:101600002525010100000000040713173807130700
:10161000130C18000C1801010000000005020B0C4F
:101620001A020B020B00101C283001010000000000
:10163000080307171E0307090D0005050F0F01001A
:0116400000A9
:10164100FFFFFFFFFFFF000000000000000C024051
:101651000010000008000000000000000100000070
:10166100000C024000200000080000000000000003
:1016710002000000000C02400040000008000000D1
:101681000000000003000000000C02400080000088
:08169100080000000000000049
:0400000508000000EF
:00000001FF
