:020000040800F2
:10000000A8080020191100087511000875110008D2
:100010007511000875110008751100080000000036
:100020000000000000000000000000007511000842
:100030007511000800000000751100087511000816
:100040007511000875110008751100087511000878
:100050007511000875110008751100087511000868
:100060007511000875110008751100087511000858
:100070007511000875110008751100087511000848
:100080007511000875110008751100087511000838
:100090007511000875110008751100087511000828
:1000A0007511000875110008751100087511000818
:1000B00001110008A512000875110008751100084B
:1000C00075110008751100087511000875110008F8
:1000D00075110008751100087511000875110008E8
:1000E00075110008751100087511000875110008D8
:1000F00075110008751100087511000875110008C8
:1001000075110008751100087511000875110008B7
:1001100075110008751100087511000875110008A7
:100120007511000875110008751100087511000897
:100130007511000875110008751100087511000887
:100140007511000875110008751100087511000877
:100150007511000875110008751100087511000867
:100160007511000875110008751100087511000857
:100170007511000875110008751100087511000847
:10018000751100087511000880B582B000AF01211B
:10019000042001F0D5FA4FF400533B6000233B717B
:1001A00000237B710023BB710023FB713B46194682
:1001B000034801F081FC00BF0837BD4680BD00BF89
:1001C0000008024080B485B000AF78600023FB7364
:1001D0004A4B1B78DBB2002B00F08980484B1B7820
:1001E000DBB2022B26D0032B58D1464B1B889BB287
:1001F0001B0A9BB21A46434B1B889BB2DB43DBB204
:100200009A424ED13F4B1B889BB2DBB29AB23D4B18
:100210001A803D4B1B889BB21B021AB2394B1B88BC
:100220009BB21BB213431BB29AB2364B1A80012306
:10023000FB7336E0334B1B889BB21B0A9BB21A46FA
:10024000304B1B889BB2DB43DBB29A4209D12D4B6A
:100250001B889BB2DBB29AB22A4B1A800123FB7334
:1002600021E02A4B1B889BB248F2EE7293421AD1CE
:10027000234B0B221A70234B1B889BB203F47F4342
:100280001B129AB2214B1A801E4B1B889BB2DBB209
:100290009AB21C4B1A800123FB7304E00123FB7309
:1002A00002E000BF00E000BFFB7B002B1CD0144B22
:1002B0001B78DAB27B681A70144B1B889AB27B6881
:1002C0005A80104B1B889AB27B689A80104B1B781F
:1002D000DAB27B689A710B4B00221A800B4B00221A
:1002E0001A800B4B00221A70044B00221A70FB7B01
:1002F00018461437BD4680BC704700BF7D00002003
:100300007E00002082000020840000208000002069
:100310008600002080B483B000AF0346FB71794BA8
:100320005A7A794B1B789A422BD8764B9A7A764B2D
:100330001B789A4225D9734BDB7B002B12D0FA79BC
:10034000714B1B7819466F4B5B7ACB1A02FA03F399
:100350001AB26E4B1B881BB213431BB29AB26B4B83
:100360001A803FE0694B1B885B009AB2674B1A808A
:10037000FB799AB2654B1B8813439AB2634B1A8080
:1003800030E0604BDA7A604B1B789A422AD85D4B9A
:100390001A7B5D4B1B789A4224D95A4BDB7B002B8E
:1003A00012D0FA79584B1B781946564BDB7ACB1A88
:1003B00002FA03F31AB2564B1B881BB213431BB24B
:1003C0009AB2534B1A800DE0514B1B885B009AB2D6
:1003D0004F4B1A80FB799AB24D4B1B8813439AB24C
:1003E0004B4B1A80474B1B78032B17D1464B1B787E
:1003F000102B13D9444B1B78142B0FD8FA79424B8E
:100400001B78113B02FA03F31AB2424B1B881BB252
:1004100013431BB29AB23F4B1A8068E0394B1B78EA
:10042000052B64D1384B1B78132B13D9364B1B7813
:10043000172B0FD8FA79344B1B78083B02FA03F3D9
:100440001AB2334B1B881BB213431BB29AB2304B08
:100450001A8016E02C4B1B78172B12D92A4B1B78CD
:100460001B2B0ED8FA79284B1B78143B02FA03F3A6
:100470005AB2294B1B785BB213435BB2DAB2264BFC
:100480001A70214B1B782F2B31D8FB79002B16D0FB
:100490001D4B1B78DB08DBB218461A461F4B9B5CD2
:1004A0005AB2194B1B7803F00703012101FA03F339
:1004B0005BB213435BB2DAB2184B1A5417E0124B1B
:1004C0001B78DB08DBB218461A46144B9B5C5AB209
:1004D0000D4B1B7803F00703012101FA03F35BB214
:1004E000DB435BB213405BB2DAB20C4B1A54064BDF
:1004F0001B780133DAB2044B1A7000BF0C37BD46CB
:1005000080BC70476C00002068000020880000203C
:100510008A0000208C00002096000020900000201F
:10052000B0B582B000AF4FF400519B4801F052FBD0
:100530000346BB70994B1B78DBB2002B40F01B8449
:10054000974B1B78002B56D1BB78002B07D1954BCE
:100550001B780133DAB2934B1A7000F00CBC914B4C
:100560001B78002B18D08E4B01221A708E4B012263
:100570001A708E4B00221A708D4B00221A808D4B00
:1005800000221A808C4B00221A708C4BFF221A70AA
:100590008B4B01221A70EEE38A4B1B884FF6FF72D9
:1005A000934200F0E883874B1B8801339AB2854B56
:1005B0001A80854B1B884FF6FF72934200F0DB8355
:1005C000814B1B8801339AB27F4B1A807E4B1B886C
:1005D0001A4640F231439A4240F3CD837B4B1B884D
:1005E000002B00F0C883794B00221A80764B4FF61F
:1005F000FF721A80BFE36C4B1B78002B00F0058163
:10060000BB78002B14D06E4B1B780133DAB26C4BE5
:100610001A706B4B1B78E92B40F24282604B002230
:100620001A70604B00221A70654B00221A7037E274
:1006300000237B605B4B1B781E2B0EDD594B1B7818
:10064000292B0ADC5E4B1B78052B06DD5C4B1B78E7
:100650000A2B02DC5E4B7B607CE0524B1B785D2BEF
:100660000EDD504B1B78B12B0ADC554B1B782D2B24
:1006700006DD534B1B78592B02DC564B7B6069E03F
:10068000484B1B785D2B0EDD464B1B78B12B0ADCEB
:100690004B4B1B78162B06DD494B1B782D2B02DCB0
:1006A0004D4B7B6056E03F4B1B783B2B0EDD3D4BAB
:1006B0001B784B2B0ADC424B1B783B2B06DD404B57
:1006C0001B784B2B02DC454B7B6043E0354B1B78A2
:1006D000282B0EDD334B1B78402B0ADC384B1B7864
:1006E000282B06DD364B1B78402B02DC3C4B7B6015
:1006F00030E02C4B1B782C2B0EDD2A4B1B78392B32
:100700000ADC2F4B1B78152B06DD2D4B1B781D2B80
:1007100002DC344B7B601DE0224B1B78022B16DD84
:10072000204B1B78072B12DC254B1B78162B03DD87
:10073000234B1B781E2B07DD214B1B78082B06DD76
:100740001F4B1B780D2B02DC274B7B6002E0144B08
:1007500000221A70124B1B78002B0AD0234A7B68A8
:1007600014461D4628686968AA68EB680FC42B7C8C
:100770002370124B00221A701C4B1B78082B3AD1A5
:100780000F4B1B78162B33DD0D4B1B781E2B2FDCEC
:100790000120FFF7BFFD2EE0000802407D00002091
:1007A0009700002098000020990000209A00002067
:1007B0008A000020880000209600002068000020A9
:1007C0009B0000209C000020000000209E000020D4
:1007D0005C2100087021000884210008982100088D
:1007E000AC210008C0210008D42100086C000020C2
:1007F0000020FFF78FFD994B01221A70984B0022C1
:100800001A70984B00221A704AE1974B1B78002B04
:1008100000F036810023FB70BB78002B79D0934B1E
:100820005A7B934B1B789A421DD1904B9B7B012B9B
:1008300019D18E4B5A79894B1B789A4209D88B4B28
:100840009A79864B1B789A4203D3884B00229A737D
:1008500061E0884B00221A70804B00221A70804B96
:1008600000221A7057E07E4B1B780133DAB27C4BC2
:100870001A707E4B1B78012B2AD1794B1B780B2BDE
:1008800026DD7B4B1B780A2B22D9794B1B78013351
:10089000DAB2764B5A730123FB70754B1B780B3B16
:1008A0001B021AB2744B1B881BB213431BB29AB2C1
:1008B000714B1A806D4BDA7A6D4B1B781344DBB2A7
:1008C0000133DAB2694B1A73654B0A221A7022E0BF
:1008D000634B1B78E92B1ED9654B1B781A46634B7B
:1008E0005B7B013B9A420AD1604B9B7B002B06D17C
:1008F0005F4B1B780133DAB25D4B1A700BE05D4B36
:1009000000221A70554B00221A70554B00221A70A3
:1009100001E00123FB70FB78002B00F0C180534BFA
:100920001B78032B52D1524B1B78102B4ED14B4BC3
:100930001B78042B18DD494B1B780C2B14DC484B1F
:100940001B783B2B10DD464B1B784B2B0CDC464BAE
:1009500000221A70494B00221A80454B1B78013344
:10096000DAB2434B1A7030E03C4B1B78042B25DD88
:100970003A4B1B780C2B21DC3C4B0A221A703B4B68
:100980001022DA72394B20221A73384B20225A7304
:10099000334B1B780F2B0ADD314B1B78212B06DCE8
:1009A0000120FFF7B7FC304B00221A700DE0002049
:1009B000FFF7B0FC2C4B00221A7006E02D4B0022F2
:1009C0001A70274B00221A7044E043E0274B5A78F4
:1009D000224B1B789A4218D8244B9A781F4B1B78CD
:1009E0009A4212D3214BDA781D4B1B789A420CD8CD
:1009F0001E4B1A791A4B1B789A4206D30120FFF737
:100A000089FC194B00221A7024E0184B5A79134BB9
:100A10001B789A4218D8154B9A79104B1B789A423A
:100A200012D3124BDA790E4B1B789A420CD80F4B2B
:100A30001A7A0B4B1B789A4206D30020FFF76AFC08
:100A4000094B00221A7005E00A4B00221A70044B71
:100A500000221A70014B01221A7021E09800002038
:100A60009B000020990000209A0000206C000020CC
:100A70006800002097000020880000208C000020E3
:100A8000BB78002B06D15D4B1B780133DAB25B4B90
:100A90001A7005E05A4B01221A705A4B01221A7043
:100AA000594B1B78002B00F06681584B5A7B584BF2
:100AB0001B789A4240F05F81544B9B7B002B40F0A7
:100AC0005A81544B1A88544B1B889A420BD1534B72
:100AD0001B88B3F5966F06D2514B1B780133DAB2FF
:100AE0004F4B1A7002E04E4B00221A70474B1B7896
:100AF000012B0BD14A4B1B78012B03D0484B1B78A1
:100B0000022B03D1454B00221A80FEE03F4B1B789D
:100B1000052B07D1424B1B78012B03D13F4B002201
:100B20001A80F2E0394B1B780A2B09D13C4B1B7819
:100B300003F00103002B03D0384B00221A80E4E0BD
:100B4000384B01221A70314B1B78082B34D1324BB1
:100B50001B88DB43C3F30903334A1288934213D142
:100B6000314B1A882C4B1A802F4B00221A80274BAE
:100B70001A782E4B1A702E4B1A882E4B1A80264B41
:100B80001A882D4B1A80C0E0234B1B8803F0010309
:100B9000002B0AD1204B1A88234B1A80274B0022A6
:100BA0001A80204B00221A70AFE01F4B00221A80DF
:100BB0001C4B00221A70A8E0144B1B78022B46D164
:100BC000134B1B78002B42D1144B1B88B3F5E16FFC
:100BD0003AD21B4B1A88164B1A800E4B1A880E4BB2
:100BE0001A80184B1B78DBB243F00103DAB2154BC5
:100BF0001A700A4B00221A8029E000BF98000020DA
:100C00009A0000209B000020970000206C0000202C
:100C100068000020020000208A0000209C000020C4
:100C2000A00000207D0000209E0000207E0000200B
:100C300088000020800000208200002000000020AA
:100C400004000020860000204E4B00221A704E4BFC
:100C50001B78052B41D14D4B1B785BB203F00F0382
:100C60005AB24A4B1B781B09DBB25BB253405AB2F3
:100C7000464B5B785BB203F00F035BB253405AB252
:100C8000424B5B781B09DBB25BB253405BB27B70BB
:100C90007A783E4B9B7803F00F039A4202D0394B8F
:100CA00000221A70394B9A78384BDB785340DAB20D
:100CB000364B1B7953407B70344B5B797A789A4280
:100CC00002D0304B00221A70314B1B78DAB2314B14
:100CD0001B781343DAB22E4B1A702B4B1A782E4B1B
:100CE0001A702E4B1A882E4B1A80274B1B78022B1A
:100CF00003D12A4B1A882B4B1A802B4B1A882B4B6B
:100D00001A802B4B1A882B4B1A801E4B1B78DBB298
:100D1000002B24D0284B1A88234B1B889A4213D1CE
:100D2000204B1A881D4B1B889A420DD1234B1B88E0
:100D300040F6C902934207D8154B1B78DBB243F04B
:100D40000103DAB2124B1A70144B1A88154B1A8031
:100D5000154B1A88184B1A80184B00221A80184B12
:100D600000221A70104B00221A80164B00221A70B3
:100D7000154B00221A70034B1B78DBB2184608375C
:100D8000BD46B0BD7D0000206C000020900000201A
:100D900086000020960000207E00002088000020B1
:100DA00080000020040000208A0000208200002033
:100DB0008C00002084000020020000209C00002005
:100DC00097000020980000209B00002090B484B081
:100DD00000AF03460A46FB711346BB710023FB605C
:100DE000BB7903F003039B000F2202FA03F3FB60BD
:100DF0001649BB799B08DBB21846144ABB799B089D
:100E0000DBB2023352F82320FB68DB431A40831C19
:100E100041F823200D48BB799B08DBB21C460B4AE6
:100E2000BB799B08DBB2023352F82320F979BB79F6
:100E300003F003039B0001FA03F31A43A31C40F8D9
:100E4000232000BF1037BD4690BC704700380140DA
:100E500080B58AB000AF7860396000237B620023E0
:100E60003B620023FB610023BB617B681B8A9BB252
:100E70007B627B6A23F440537B623B68DB881A46C3
:100E80007B6A13437B627B6A9AB27B681A827B68B7
:100E90009B899BB27B627B6A23F4B05323F00C03E3
:100EA0007B623B689A883B681B8913439AB23B6814
:100EB0005B8913439BB21A467B6A13437B627B6A4E
:100EC0009AB27B689A817B689B8A9BB27B627B6AC1
:100ED00023F440737B623B689B891A467B6A134309
:100EE0007B627B6A9AB27B689A8207F10803184694
:100EF00000F07CFB7B68304A934203D07B682F4A2A
:100F0000934202D17B693B6201E03B693B627B68B3
:100F10009B899BB21BB2002B0CDA3A6A13469B00EA
:100F200013449A001A443B681B685B00B2FBF3F35E
:100F3000FB610BE03A6A13469B0013449A001A4483
:100F40003B681B689B00B2FBF3F3FB61FB691C4A27
:100F5000A2FB03235B091B017B627B6A1B096422E2
:100F600002FB03F3FA69D31ABB617B689B899BB2CE
:100F70001BB2002B0CDABB69DB003233104AA2FB38
:100F800003235B0903F007037A6A13437B620BE0D8
:100F9000BB691B0132330A4AA2FB03235B0903F03E
:100FA0000F037A6A13437B627B6A9AB27B681A8169
:100FB00000BF2837BD4680BD00100140001401402D
:100FC0001F85EB5180B483B000AF78600B46FB7097
:100FD000FB78002B08D07B689B899BB243F40053BD
:100FE0009AB27B689A8107E07B689B899BB223F465
:100FF00000539AB27B689A8100BF0C37BD4680BC13
:10100000704700BF80B483B000AF78600B467B8030
:101010007B88C3F308039AB27B689A8000BF0C37C1
:10102000BD4680BC704700BF80B485B000AF78601B
:101030000B467B800023FB737B681B889AB27B88FE
:1010400013409BB2002B02D00123FB7301E000236D
:10105000FB73FB7B18461437BD4680BC704700BF4E
:1010600080B500AF00F012F800F036F8FFF78CF80A
:1010700000BF80BD80B582B000AF78607868FFF7B0
:10108000A1F8034618460837BD4680BD80B584B038
:1010900000AF0121012000F071FB0723BB6040F28B
:1010A000BB23BB800023BB810023FB803B1D194673
:1010B0004FF0804000F06AFF012201214FF0804094
:1010C00000F0EEFF01214FF0804000F0C9FF00BFAB
:1010D0001037BD4680BD00BF80B582B000AF1C2375
:1010E0003B710123FB710F237B710F23BB713B1DF0
:1010F000184600F0EBFE00BF0837BD4680BD00BFBC
:1011000080B500AF01214FF0804001F017F8FFF7E4
:1011100007FA00BF80BD00BF80B582B000AF104BA2
:101120007B60104B3B6007E03B681A1D3A607A68B1
:10113000111D796012681A603B680B4A9342F3D321
:101140000A480B494FF000028842B8BF40F8042B10
:10115000FADB00F009F900BF0837BD4680BD00BFCB
:10116000EC2100080000002068000020680000203A
:10117000A800002080B400AFFEE700BF80B584B0B7
:1011800000AF0023FB7343E0FA7B254913469B0025
:1011900013449B000B440C331B680121184600F0DC
:1011A000CFFAFA7B1E4913469B0013449B000B4465
:1011B00008331B887B6001233B720023BB72012331
:1011C000FB7202237B72FA7B154913469B00134482
:1011D0009B000B4404331B683A1D1146184600F06F
:1011E0006BFCFA7B0E4913469B0013449B000B4497
:1011F00010331B78002B04D1FB7B184600F012F84B
:1012000003E0FB7B184600F02DF8FB7B0133FB73FA
:10121000FB7B032BB8D900BF1037BD4680BD00BF94
:101220000800002080B483B000AF0346FB71FA7958
:101230000B4913469B0013449B000B44043319686D
:10124000FA79074813469B0013449B000344083374
:101250001B884B8300BF0C37BD4680BC704700BF66
:101260000800002080B483B000AF0346FB71FA7918
:101270000B4913469B0013449B000B44043319682D
:10128000FA79074813469B0013449B000344083334
:101290001B880B8300BF0C37BD4680BC704700BF66
:1012A0000800002080B582B000AF01212A4800F07C
:1012B0001BFF0346002B4AD0284A3B4612681146C2
:1012C00019800233120C1A7000237B601BE000BFF0
:1012D00080212348FFF7A8FE0346002BF8D03A46AA
:1012E0007B6813441B789BB219461D48FFF78AFEA2
:1012F00000BF40211A48FFF797FE0346002BF8D0A5
:101300007B6801337B607B68022BE0DD00BF8021BE
:101310001348FFF789FE0346002BF8D0114B1B68DA
:101320009BB220339BB219460D48FFF76BFE00BFFE
:1013300040210B48FFF778FE0346002BF8D0002130
:10134000054800F08DFE0121034800F0F7FE00BFC4
:101350000837BD4680BD00BF00040040E8210008FA
:1013600000480040A400002080B5A0B000AF00F00D
:1013700093FC0121082000F0E3F901214FF4807073
:1013800000F01AFA0121012000F0DAF901214FF4EE
:10139000804000F011FA0121042000F0D1F9012170
:1013A0004FF4802000F0EAF90121042000F0E6F972
:1013B0000121022000F0E2F94FF48053BB670123C2
:1013C00087F87C30002387F87E30032387F87D3050
:1013D000002387F87F3007F1780319467D4800F035
:1013E0006BFB01233B67002387F87430002387F8E9
:1013F0007630032387F87530022387F8773007F1BA
:1014000070031946744800F057FB0223BB660323A0
:1014100087F86C30002387F86F3007F168031946AE
:101420006D4800F049FB0023BB650023FB650023EA
:101430003B6600237B6607F15803184600F02EFA3E
:1014400000233B64002387F84430012387F84530AC
:101450000023FB640023BB6400233B65012387F862
:10146000543007F1400319465C4800F0C3F90423E7
:1014700001220121594800F055FA0121574800F096
:1014800035FA42F2CF03BB6342F20F73BB860023EF
:10149000BB870023FB8607F134031946504800F050
:1014A00075FD01214E4800F0DBFD062387F8303042
:1014B000002387F83130002387F83230012387F882
:1014C000333007F13003184600F000FD0123BB6202
:1014D000002387F82C30082387F82D30012387F864
:1014E0002E3007F12803184600F07EFC0021002072
:1014F000FFF76CFC1D2387F82430002387F8253084
:10150000002387F82630012387F8273007F12403CA
:10151000184600F0DBFC0121314800F00FFE4FF4CB
:101520004063FB61022387F82030002387F82230D4
:10153000012387F82330022387F8213007F11C03A9
:101540001946284800F0B8FA07220A21254800F079
:101550005BFB07220B21234800F056FB4FF4E133DD
:10156000FB6000233B8200237B820023BB8200239D
:101570003B830C23FB8207F10C0319461A48FFF743
:1015800067FC01211848FFF71DFDFFF7F7FDFFF786
:1015900067FD3B1D1846FFF76DFD0346012BF8D193
:1015A000FB88B3F57F4FF4D13B890C2B03D100208E
:1015B000FFF758FE02E00020FFF734FE3B890D2BB9
:1015C00003D10120FFF74EFEE3E70120FFF72AFEDB
:1015D000DFE700BF000C0240000002400020014095
:1015E00000040040000802400048004080B489B078
:1015F00000AF78600023BB6100237B610023FB61A7
:1016000002233B610023FB600223BB60484B9B68C5
:1016100003F00C03BB61BB69042B07D0082B09D076
:10162000002B3FD17B68434A1A603FE07B68424A07
:101630001A603BE03E4B5B6803F480039B0DFB604C
:101640003B4B5B6803F03F03BB60FB68002B0DD096
:10165000394ABB68B2FBF3F2354B596847F6C073A1
:101660000B409B0903FB02F3FB610CE0314ABB68B2
:10167000B2FBF3F22E4B596847F6C0730B409B093F
:1016800003FB02F3FB612A4B5B6803F440331B0C42
:1016900001335B003B61FA693B69B2FBF3F27B68A3
:1016A0001A6003E07B68234A1A6000BF204B9B68E6
:1016B00003F0F003BB61BB691B09BB611F4ABB6937
:1016C00013441B78DBB27B617B681A687B69DA4064
:1016D0007B685A60164B9B6803F4E053BB61BB699F
:1016E0009B0ABB61154ABB6913441B78DBB27B6163
:1016F0007B685A687B69DA407B689A600C4B9B6810
:1017000003F46043BB61BB695B0BBB610B4ABB6904
:1017100013441B78DBB27B617B685A687B69DA40D3
:101720007B68DA6000BF2437BD4680BC704700BFCD
:10173000003802400024F40000127A005800002013
:1017400080B483B000AF78600B46FB70FB78002B51
:1017500006D00949084B1A6B7B6813430B6306E0FC
:101760000549054B1A6B7B68DB4313400B6300BFD5
:101770000C37BD4680BC70470038024080B483B04F
:1017800000AF78600B46FB70FB78002B06D0094950
:10179000084B1A6C7B6813430B6406E00549054B44
:1017A0001A6C7B68DB4313400B6400BF0C37BD46EB
:1017B00080BC70470038024080B483B000AF7860CE
:1017C0000B46FB70FB78002B06D00949084B5A6C7E
:1017D0007B6813434B6406E00549054B5A6C7B68F4
:1017E000DB4313404B6400BF0C37BD4680BC7047E1
:1017F0000038024080B485B000AF786039600023C3
:10180000FB600023FB727B685B68FB60FB6823F076
:10181000407323F48073FB603B681B791A023B68BA
:101820001B681343FA681343FB607B68FA685A60CD
:101830007B689B68FB60FA68174B1340FB603B6852
:101840001A693B68DB681A433B689B681A433B682C
:101850005B795B001343FA681343FB607B68FA68AB
:101860009A607B68DB6AFB60FB6823F47003FB60B3
:101870003B681B7D013BDAB2FB7A1343FB72FB7AB8
:101880001B05FA681343FB607B68FA68DA6200BFE5
:101890001437BD4680BC7047FDF7FFC080B485B0EB
:1018A00000AF78600023FB600E4B5B68FB60FA685A
:1018B0000D4B1340FB607B681A687B685B681A43BA
:1018C0007B689B681A437B68DB681343FA681343A1
:1018D000FB60044AFB68536000BF1437BD4680BC00
:1018E000704700BF00230140E030FCFF80B483B0AC
:1018F00000AF78600B46FB70FB78002B06D07B684E
:101900009B6843F001027B689A6005E07B689B68F6
:1019100023F001027B689A6000BF0C37BD4680BC93
:10192000704700BF80B485B000AF786008461146AC
:101930001A460346FB700B46BB7013467B700023B0
:10194000FB600023BB60FB78092B23D97B68DB6835
:10195000FB60FB78A3F10A0213465B0013440722E5
:1019600002FA03F3BB60BB68DB43FA681340FB6019
:101970007978FB78A3F10A0213465B00134401FA5D
:1019800003F3BB60FA68BB681343FB607B68FA68CB
:10199000DA601EE07B681B69FB60FA7813465B0027
:1019A0001344072202FA03F3BB60BB68DB43FA6807
:1019B0001340FB607978FA7813465B00134401FA10
:1019C00003F3BB60FA68BB681343FB607B68FA688B
:1019D0001A61BB78062B21D87B685B6BFB60BB78F8
:1019E0005A1E13469B0013441F2202FA03F3BB60E6
:1019F000BB68DB43FA681340FB60F978BB785A1E7A
:101A000013469B00134401FA03F3BB60FA68BB68FA
:101A10001343FB607B68FA685A6347E0BB780C2B82
:101A200021D87B681B6BFB60BB78DA1F13469B00D9
:101A300013441F2202FA03F3BB60BB68DB43FA685E
:101A40001340FB60F978BB78DA1F13469B00134400
:101A500001FA03F3BB60FA68BB681343FB607B6861
:101A6000FA681A6322E07B68DB6AFB60BB78A3F14B
:101A70000D0213469B0013441F2202FA03F3BB60BE
:101A8000BB68DB43FA681340FB60F978BB78A3F1CD
:101A90000D0213469B00134401FA03F3BB60FA687E
:101AA000BB681343FB607B68FA68DA6200BF1437D7
:101AB000BD4680BC704700BF80B487B000AF78607F
:101AC000396000237B6100233B610023FB6000231E
:101AD0007B6176E001227B6902FA03F33B613B689C
:101AE0001A683B691340FB60FA683B699A4265D10A
:101AF0007B681A687B695B00032101FA03F3DB430F
:101B00001A407B681A607B681A683B681B79194623
:101B10007B695B0001FA03F31A437B681A603B6838
:101B20001B79012B03D03B681B79022B2ED17B68DC
:101B30009A687B695B00032101FA03F3DB431A40D7
:101B40007B689A607B689A683B685B7919467B6919
:101B50005B0001FA03F31A437B689A607B685A685A
:101B60007B699BB2194601238B40DB431A407B689B
:101B70005A607B685B683A68927911467A6992B2DA
:101B800001FA02F292B21A437B685A607B68DA6803
:101B90007B699BB25B00032101FA03F3DB431A402C
:101BA0007B68DA607B68DA683B68DB7919467B69B9
:101BB0005B0001FA03F31A437B68DA607B69013347
:101BC0007B617B690F2B85D900BF1C37BD4680BC6C
:101BD000704700BF80B485B000AF78600B467B8053
:101BE0000023FB737B681A697B881340002B02D0AB
:101BF0000123FB7301E00023FB73FB7B18461437C2
:101C0000BD4680BC704700BF80B485B000AF78602F
:101C10000B467B8013467B700023FB600023BB6078
:101C20007A787B8803F007039B0002FA03F3FB60DA
:101C30007B88DB089BB218467B88DB089BB21A4680
:101C40007B68083253F822207B8803F007039B004F
:101C50000F2101FA03F3DB4302EA03017B6800F181
:101C6000080243F822107B88DB089BB21A467B6887
:101C7000083253F82220FB681343BB607B88DB08E3
:101C80009BB21A467B680832B96843F8221000BF3D
:101C90001437BD4680BC704780B500AF124A124B66
:101CA0001B6843F0010313600F4B00229A600E4A39
:101CB0000D4B1B6823F0847323F4803313600A4BAD
:101CC0000A4A5A60084A084B1B6823F480231360B1
:101CD000054B0022DA6000F00DF8054B4FF0006272
:101CE0009A6000BF80BD00BF003802401030002461
:101CF00000ED00E080B483B000AF00237B600023E0
:101D00003B60354A344B1B6843F480331360324BDD
:101D10001B6803F400333B607B6801337B603B68E6
:101D2000002B03D17B68B3F5A06FF0D12A4B1B6861
:101D300003F40033002B02D001233B6001E00023B9
:101D40003B603B68012B42D1234A234B1B6C43F081
:101D500080531364214A214B1B6843F48043136072
:101D60001D4A1D4B9B6893601B4A1B4B9B6843F4A9
:101D700000439360184A184B9B6843F4A053936048
:101D8000154B174A5A60144A134B1B6843F0807373
:101D9000136000BF104B1B6803F00073002BF9D0D9
:101DA000104B40F205621A600B4A0B4B9B6823F004
:101DB00003039360084A084B9B6843F00203936057
:101DC00000BF054B9B6803F00C03082BF9D100BF43
:101DD0000C37BD4680BC70470038024000700040A0
:101DE00008544007003C024080B485B000AF7860E2
:101DF0000023FB60344BFB607B689B79002B4FD04A
:101E00003149314B1A687B681B68DB4313400B6018
:101E10002D492D4B5A687B681B68DB4313404B6090
:101E20007B681B791A46FB681344FB60FB68FA6801
:101E300011687A6812680A431A602349224B9A682B
:101E40007B681B68DB4313408B601F491E4BDA68BD
:101E50007B681B68DB431340CB607B685B79102B8E
:101E60000ED11949184B9A687B681B6813438B6025
:101E70001549154BDA687B681B681343CB601DE07E
:101E8000114BFB607B685B791A46FB681344FB606F
:101E9000FB68FA6811687A6812680A431A600DE0F4
:101EA0007B681B791A46FB681344FB60FB68FA6881
:101EB00011687A681268D2430A401A6000BF14376A
:101EC000BD4680BC704700BF003C014080B485B077
:101ED00000AF78600023FB730023BB730F237B7379
:101EE0007B68DB78002B38D0264BDB68DB4303F4C0
:101EF000E0631B0AFB73FB7BC3F10403BB737A7BB8
:101F0000FB7B42FA03F37B737B685B781A46BB7BEF
:101F100002FA03F3FB737B689A787B7B1340DAB297
:101F2000FB7B1343FB73FB7B1B01FB73164A7B6834
:101F30001B781344FA7B83F80023134A7B681B78D1
:101F40005B09DBB218467B681B7803F01F03012195
:101F500001FA03F342F820300FE00B497B681B784D
:101F60005B09DBB218467B681B7803F01F03012274
:101F70009A4000F1200341F8232000BF1437BD46EA
:101F800080BC704700ED00E000E100E080B485B067
:101F900000AF786039600023FB817B681B88FB8180
:101FA0007B68284A934213D07B68274A93420FD01C
:101FB0007B68B3F1804F0BD07B68244A934207D0F3
:101FC0007B68234A934203D07B68224A934208D11C
:101FD000FB8923F07003FB813B685A88FB8913431C
:101FE000FB817B681C4A93420CD07B681B4A93425E
:101FF00008D0FB8923F44073FB813B681A89FB8975
:102000001343FB817B68FA891A803B685A687B68B6
:10201000DA623B681A887B681A857B68094A9342B2
:1020200003D07B68084A934204D13B689B7A9AB2FA
:102030007B681A867B6801229A8200BF1437BD46EE
:1020400080BC7047000001400004014000040040D3
:1020500000080040000C0040001000400014004048
:1020600080B483B000AF78600B46FB70FB78002B28
:1020700008D07B681B889BB243F001039AB27B684F
:102080001A8007E07B681B889BB223F001039AB299
:102090007B681A8000BF0C37BD4680BC704700BF0C
:1020A00080B483B000AF78600B467B8013467B70B2
:1020B0007B78002B08D07B689B899AB27B8813437E
:1020C0009AB27B689A8109E07B689B899AB27B8887
:1020D000DB439BB213409AB27B689A8100BF0C37F6
:1020E000BD4680BC704700BF80B485B000AF78604B
:1020F0000B467B800023FB730023BB8100237B8185
:102100007B681B8A9AB27B881340BB817B689B8962
:102110009AB27B8813407B81BB89002B05D07B89D9
:10212000002B02D00123FB7301E00023FB73FB7B38
:1021300018461437BD4680BC704700BF80B483B0DA
:1021400000AF78600B467B807B88DB439AB27B686C
:102150001A8200BF0C37BD4680BC7047010F1507BF
:102160000B070B070B0F14000F14000100000000F9
:1021700002050C1122050C050C0010102020010195
:102180000000000002050C1122050C050C000000E7
:10219000000001010000000003050C1021050C05E2
:1021A0000C0010152525010100000000040713177D
:1021B00038071307130C18000C1801010000000069
:1021C00005020B0C1A020B020B00101C2830010137
:1021D00000000000080307171E0307090D0005058E
:0C21E0000F0F01000000000050313A0019
:1021EC00FFFFFFFFFFFF000000000000000C02409B
:1021FC0000100000080000000000000001000000BA
:10220C00000C02400020000008000000000000004C
:10221C0002000000000C024000400000080000001A
:10222C000000000003000000000C024000800000D1
:10223C000800000000000000000000000102030480
:08224C00010203040607080962
:0400000508000000EF
:00000001FF
